:020000040800F2
:1000000068060020CD010008910600088906000856
:100010008D060008190500083D08000800000000D2
:10002000000000000000000000000000ED060008D5
:10003000710500080000000093060008D9070008B9
:10004000E7010008E7010008E7010008E7010008F0
:10005000E7010008E7010008E7010008E7010008E0
:10006000E7010008E7010008E7010008E7010008D0
:10007000E7010008E7010008E7010008E7010008C0
:10008000E7010008E7010008E7010008E7010008B0
:10009000E7010008E7010008E7010008E7010008A0
:1000A000E7010008E7010008E7010008E701000890
:1000B000E7010008E7010008E7010008E701000880
:1000C000E7010008E7010008E7010008E701000870
:1000D000E7010008E7010008E7010008E701000860
:1000E000E7010008E7010008E7010008E701000850
:1000F000E7010008E7010008E7010008E701000840
:10010000E7010008E7010008E7010008E70100082F
:10011000E7010008E7010008E7010008E70100081F
:10012000E7010008E7010008E7010008E70100080F
:1001300000F002F800F03AF80AA090E8000C8244BF
:100140008344AAF10107DA4501D100F02FF8AFF29C
:10015000090EBAE80F0013F0010F18BFFB1A43F0A5
:1001600001031847E406000004070000103A24BF0A
:1001700078C878C1FAD8520724BF30C830C144BF0C
:1001800004680C607047000000230024002500264E
:10019000103A28BF78C1FBD8520728BF30C148BFEA
:1001A0000B6070471FB51FBD10B510BD00F031F8D2
:1001B0001146FFF7F7FF00F043FB00F04FF803B4E0
:1001C000FFF7F2FF03BC00F057F800000948804732
:1001D00009480047FEE7FEE7FEE7FEE7FEE7FEE729
:1001E000FEE7FEE7FEE7FEE704480549054A064B41
:1001F00070470000DD07000831010008680000209A
:1002000068060020680200206802002070477047DE
:100210007047754600F02CF8AE4605006946534617
:1002200020F00700854618B020B5FFF7DDFFBDE8D8
:1002300020404FF000064FF000074FF000084FF04D
:10024000000B21F00701AC46ACE8C009ACE8C009DE
:10025000ACE8C009ACE8C0098D46704710B504464B
:10026000AFF300802046BDE81040FFF7A8BF0000B4
:10027000004870470800002001491820ABBEFEE787
:10028000260002007047000000B591B0012148022D
:1002900000F01CFA0121042000F018FA01210846A0
:1002A00000F004FA4FF4004000F0F4F900208DF85B
:1002B000430003208DF842000F20ADF8400010A944
:1002C000354800F056F9052301220021334800F09B
:1002D000BDF8052302220121304800F0B7F80523BC
:1002E000032202212D4800F0B1F805230422032146
:1002F0002A4800F0ABF800200B900E904FF46020DD
:100300000D9000208DF8310001208DF83000042080
:100310008DF83C000BA9214800F070F81F484C30C4
:10032000009080150690002004901D4801904FF425
:1003300080600790802005900020029004200390A8
:100340002020089000200A904FF4805009906946C0
:10035000144800F0EFF80121124800F0DFF8012105
:100360000E4800F02CF801210C4800F01DF80B4855
:1003700000F0C8F800BF094800F036F80128FAD0AC
:10038000064800F0C4F800BF044800F023F8012834
:10039000FAD011B000BD0000000801400024014067
:1003A000000000200800024021B1826842F00102F2
:1003B000826003E0826822F001028260704721B10E
:1003C000826842F48072826003E0826822F4807264
:1003D00082607047014600208A6802F004020AB178
:1003E000012000E000207047014600208A6802F0EA
:1003F00008020AB1012000E00020704730B5024633
:100400000020002350680F4C20400D790C6844EA0E
:1004100005242043506090680B4C2040D1E90254E1
:100420002C434D7944EA450420439060D06A20F47F
:1004300070000C7C641EE4B2234340EA0350D06297
:1004400030BD0000FFFEF0FFFDF7F1FFF0B5044600
:100450000D4600200021092D11DDE068A5F10A06F6
:1004600006EB4607072606FA07F18843A5F10A06B8
:1004700006EB460603FA06F10843E0600CE020694B
:1004800005EB4507072606FA07F1884305EB450605
:1004900003FA06F108432061072A0FDA606B561E43
:1004A00006EB86071F2606FA07F18843561E06EB61
:1004B000860605FA06F10843606322E00D2A0FDA8A
:1004C000206BD61F06EB86071F2606FA07F1884326
:1004D000D61F06EB860605FA06F10843206310E0F6
:1004E000E06AA2F10D0606EB86071F2606FA07F161
:1004F0008843A2F10D0606EB860605FA06F10843CD
:10050000E062F0BD816841F0080181607047816858
:1005100041F004018160704700BFFEE721B102682D
:1005200042F00102026004E002684FF6FE731A40D6
:100530000260704710B50022026847F6F0739A43D4
:100540000C6A8B6823430C6923434C6923438C69F1
:100550002343CC6923434C6A23438C6A23431A43C5
:100560000260CB6843600B6883604B68C36010BD5A
:1005700070472DE9F04102460025002600200023A7
:100580000024002791F803C00CF00F0591F803C078
:100590000CF0100CBCF1000F03D091F802C04CEA33
:1005A000050591F800C0BCF1000F31D0146800209F
:1005B0002BE04FF0010C0CFA00F3B1F800C00CEA8C
:1005C00003069E4220D183004FF00F0C0CFA03F774
:1005D000BC4305FA03FC4CEA040491F803C0BCF1E7
:1005E000280F06D14FF0010C0CFA00FCC2F814C021
:1005F0000AE091F803C0BCF1480F05D14FF0010C9F
:100600000CFA00FCC2F810C0401C0828D1D31460BA
:10061000B1F800C0BCF1FF0F34DD546800202EE0BB
:1006200000F1080C4FF0010808FA0CF3B1F800C013
:100630000CEA03069E4221D183004FF00F0C0CFA06
:1006400003F7BC4305FA03FC4CEA040491F803C029
:10065000BCF1280F05D100F1080C08FA0CF8C2F81B
:10066000148091F803C0BCF1480F07D100F1080CC9
:100670004FF0010808FA0CF8C2F81080401C082856
:10068000CED35460BDE8F08100BFFEE700BFFEE7B7
:100690007047704701460020034A506820F44040EC
:1006A00008435060704700000010024029B1064A1C
:1006B00052690243044B5A6104E0034A526982437F
:1006C000014B5A61704700000010024029B1064AF0
:1006D00092690243044B9A6104E0034A926982439F
:1006E000014B9A617047000000100240704710B53E
:1006F00000F002F810BD00000CB500200190009041
:100700003348006840F480303149086000BF304809
:10071000006800F4003000900198401C019000989F
:1007200018B90198B0F5A06FF1D12948006800F41C
:10073000003010B10120009001E0002000900098EE
:10074000012843D12348006840F010002149086087
:100750000846006820F0030008600846006840F082
:10076000020008601A484068194948600846406815
:1007700048600846406840F4806048600846406829
:1007800020F47C1048600846406840F4E810486057
:100790000846006840F08070086000BF0C480068A0
:1007A00000F000700028F9D00948406820F00300EC
:1007B000074948600846406840F00200486000BFB2
:1007C0000348406800F00C000828F9D10CBD000077
:1007D00000100240002002407047000010B513488E
:1007E000006840F00100114908600846406810495F
:1007F00008400E494860084600680E4908400B4909
:1008000008600846006820F48020086008464068B8
:1008100020F4FE0048604FF41F008860FFF767FF78
:100820004FF000600449086010BD00000010024055
:100830000000FFF8FFFFF6FE08ED00E000BFFEE756
:10084000FFF722FD00BFFEE7680800080000002057
:10085000080000006C010008700800080800002073
:100860006006000088010008000000000000000091
:0400000508000131BD
:00000001FF
