:020000040800F2
:100000008004002049010008510100085301000844
:1000100055010008570100085901000800000000C0
:100020000000000000000000000000005B0100086C
:100030005D010008000000005F0100086101000888
:100040006301000863010008630100086301000800
:1000500063010008630100086301000863010008F0
:1000600063010008630100086301000863010008E0
:1000700063010008630100086301000863010008D0
:1000800063010008630100086301000863010008C0
:1000900063010008630100086301000863010008B0
:1000A00063010008630100086301000863010008A0
:1000B0006301000863010008630100086301000890
:1000C0006301000863010008630100086301000880
:1000D00063010008010500086301000863010008CE
:1000E0006301000863010008630100086301000860
:1000F0006301000863010008630100086301000850
:10010000630100086301000863010008630100083F
:10011000630100086301000863010008630100082F
:10012000630100086301000863010008630100081F
:10013000DFF810D000F028F8004800470108000858
:10014000AFF300808004002006488047064800473F
:10015000FEE7FEE7FEE7FEE7FEE7FEE7FEE7FEE777
:10016000FEE7FEE7A10400083101000810B50022F7
:1001700000E0521C835C8C5CA34201D1002BF8D1BF
:10018000D8B2E1B2401A10BD064C074D06E0E06857
:1001900040F0010394E8070098471034AC42F6D3CE
:1001A000FFF7CAFF3C0800085C0800082DE9F04191
:1001B000024600250026002000230024002791F895
:1001C00003C00CF00F0591F803C00CF0100CBCF14B
:1001D000000F03D091F802C04CEA050591F800C069
:1001E000BCF1000F31D0146800202BE04FF0010C5F
:1001F0000CFA00F3B1F800C00CEA03069E4220D1CD
:1002000083004FF00F0C0CFA03F7BC4305FA03FC14
:100210004CEA040491F803C0BCF1280F06D14FF05A
:10022000010C0CFA00FCC2F814C00AE091F803C0FB
:10023000BCF1480F05D14FF0010C0CFA00FCC2F8DC
:1002400010C0401C0828D1D31460B1F800C0BCF124
:10025000FF0F34DD546800202EE000F1080C4FF051
:10026000010808FA0CF3B1F800C00CEA03069E423C
:1002700021D183004FF00F0C0CFA03F7BC4305FAB1
:1002800003FC4CEA040491F803C0BCF1280F05D12B
:1002900000F1080C08FA0CF8C2F8148091F803C0B9
:1002A000BCF1480F07D100F1080C4FF0010808FA23
:1002B0000CF8C2F81080401C0828CED35460BDE86A
:1002C000F081000029B1064A92690243044B9A6109
:1002D00004E0034A92698243014B9A61704700002F
:1002E0000010024030B500210022002400232D4DD3
:1002F0006D6805F00C0121B1042905D0082923D12E
:1003000005E0294D056022E0274D05601FE0254DE1
:100310006D6805F47012234D6D6805F48034022574
:1003200005EB92421CB9214D554305600BE01D4D74
:100330006D6805F400351DB11C4D5543056002E0A4
:10034000194D5543056002E0174D056000BF00BF21
:10035000144D6D6805F0F0010909154D6B5C0568D9
:10036000DD4045600F4D6D6805F4E061090A104DF0
:100370006B5C4568DD4085600A4D6D6805F4605131
:10038000C90A0B4D6B5C4568DD40C560054D6D6865
:1003900005F44041890B074D6B5CC568B5FBF3F56F
:1003A000056130BD0010024000127A0000093D00D6
:1003B000000000201000002010B500F001F810BD72
:1003C0000CB50020019000903348006840F4803064
:1003D0003149086000BF3048006800F400300090E8
:1003E0000198401C0190009818B90198B0F5A06FD1
:1003F000F1D12948006800F4003010B101200090CC
:1004000001E0002000900098012843D123480068B3
:1004100040F01000214908600846006820F0030001
:1004200008600846006840F0020008601A4840680A
:10043000194948600846406848600846406840F4EA
:10044000806048600846406820F47C104860084698
:10045000406840F4E81048600846006840F080704A
:10046000086000BF0C48006800F000700028F9D058
:100470000948406820F00300074948600846406882
:1004800040F00200486000BF0348406800F00C00E4
:100490000828F9D10CBD00000010024000200240E5
:1004A00010B51348006840F0010011490860084683
:1004B0004068104908400E494860084600680E49E7
:1004C00008400B4908600846006820F48020086056
:1004D0000846406820F4FE0048604FF41F00886022
:1004E000FFF76AFF4FF000600449086010BD00008C
:1004F000001002400000FFF8FFFFF6FE08ED00E0EC
:1005000010B540F22551224800F0AAF801283DD14B
:100510001F4800F03BF9C4B21E48007858B91E4885
:10052000007840B9402C2BD101201A4908700020D6
:100530001A49087024E01748007801280FD10D2CC3
:1005400003D10220134908701AE0154813490978AD
:10055000445412480078401C1049087010E00D48BF
:10056000007802280CD10A2C0AD100200949087011
:1005700001200949087000200949084A1278885466
:1005800040F22551024800F043F800BF10BD0000C2
:100590000038014014000020160000201500002043
:1005A0001800002000B585B001218803FFF78AFEFE
:1005B00001210420FFF786FE18208DF813004FF468
:1005C0000070ADF8100003208DF8120004A90E4849
:1005D000FFF7ECFD4FF4165000900020ADF80C0032
:1005E0000820ADF80A000020ADF80800ADF80600BC
:1005F000ADF804006946054800F05CF801210348A5
:1006000000F015F805B000BD0008014000380140B9
:1006100010B50022002340F66A14A14200D100BFA9
:100620000A1201249440A3B2DC43048010BD21B11E
:10063000828942F40052828104E082894DF6FF7380
:100640001A408281704702460020B1F5007F00D138
:1006500000BF13880B400BB1012000E00020704761
:1006600070B50246002400230025002040F66A16DB
:10067000B14200D100BFC1F3421501F01F030126B2
:1006800006FA03F3012D02D19689334006E0022DCC
:1006900002D1168A334001E0968A33400C120126BB
:1006A00006FA04F41688344013B10CB1012000E0BE
:1006B000002070BD2DE9F04786B005460E460024A7
:1006C000A24600BFA1460027B08900B100BF2F4657
:1006D0002C8A4CF6FF700440F08804432C82AC89CD
:1006E0004EF6F3100440B0883189084371890843FD
:1006F0000443AC81AC8A4FF6FF400440B089044308
:10070000AC8201A8FFF7EEFD1F48874202D1DDF859
:1007100010A001E0DDF80CA0A88900F4004040B171
:100720000AEBCA0000EB0A1031684900B0FBF1F88F
:1007300007E00AEBCA0000EB0A1031688900B0FB41
:10074000F1F86420B8FBF0F004012009642101FBFA
:100750001089A88900F4004040B1322000EBC900A4
:10076000B0FBF1F000F00700044308E0322000EB9A
:1007700009106421B0FBF1F000F00F0004432C815C
:1007800006B0BDE8F08700000038014001468888C7
:10079000C0F308007047000070B504460D462946B6
:1007A000204600F00BF800BF80210348FFF74BFF05
:1007B0000028F9D070BD000000380140C1F30802E4
:1007C0008280704770B506460C46002505E0615DE5
:1007D0003046FFF7E1FF681CC5B2605D0028F6D126
:1007E00070BD02E008C8121F08C1002AFAD1704784
:1007F0007047002001E001C1121F002AFBD17047A1
:10080000FFF7D0FE0EE00848007801280AD107491A
:100810000748FFF7D7FF07A10448FFF7A7FC002010
:1008200001490870EFE700001600002018000020C2
:10083000003801404C454431000000005C080008CD
:100840000000002018000000E207000874080008FB
:100850001800002068040000F207000800000000F3
:100860000102030401020304060708090204060842
:040870000000000084
:0400000508000131BD
:00000001FF
