:020000040800F2
:1000000068060020CD010008D5010008D7010008CE
:10001000D9010008DB010008DD0100080000000034
:10002000000000000000000000000000DF010008E8
:10003000E101000800000000E3010008E5010008FC
:10004000E7010008E7010008E7010008E7010008F0
:10005000E7010008E7010008E7010008870200083F
:10006000E7010008E7010008E7010008E7010008D0
:10007000E7010008E7010008E7010008E7010008C0
:10008000E7010008E7010008E7010008E7010008B0
:10009000E7010008E7010008E7010008E7010008A0
:1000A000E7010008E7010008E7010008E701000890
:1000B00099080008E7010008E7010008E7010008C7
:1000C000E7010008E7010008E7010008E701000870
:1000D000E7010008E7010008E7010008E701000860
:1000E000E7010008E7010008E7010008E701000850
:1000F000E7010008E7010008E7010008E701000840
:10010000E7010008E7010008E7010008E70100082F
:10011000E7010008E7010008E7010008E70100081F
:10012000E7010008E7010008E7010008E70100080F
:1001300000F002F800F03AF80AA090E8000C8244BF
:100140008344AAF10107DA4501D100F02FF8AFF29C
:10015000090EBAE80F0013F0010F18BFFB1A43F0A5
:1001600001031847240A0000440A0000103A24BF83
:1001700078C878C1FAD8520724BF30C830C144BF0C
:1001800004680C607047000000230024002500264E
:10019000103A28BF78C1FBD8520728BF30C148BFEA
:1001A0000B6070471FB51FBD10B510BD00F031F8D2
:1001B0001146FFF7F7FF00F0DBFC00F04FF803B447
:1001C000FFF7F2FF03BC00F057F800000948804732
:1001D00009480047FEE7FEE7FEE7FEE7FEE7FEE729
:1001E000FEE7FEE7FEE7FEE704480549054A064B41
:1001F00070470000F9050008310100086800002080
:1002000068060020680200206802002070477047DE
:100210007047754600F02CF8AE4605006946534617
:1002200020F00700854618B020B5FFF7DDFFBDE8D8
:1002300020404FF000064FF000074FF000084FF04D
:10024000000B21F00701AC46ACE8C009ACE8C009DE
:10025000ACE8C009ACE8C0098D46704710B504464B
:10026000AFF300802046BDE81040FFF7A8BF0000B4
:10027000004870470400002001491820ABBEFEE78B
:1002800026000200704710B5022000F00DF801288A
:1002900002D1022000F002F810BD00000149086000
:1002A0007047000014040140014600200022074B63
:1002B0001B6803EA0102054B14331B680B4013B1A2
:1002C0000AB1012000E00020704700000004014056
:1002D00010B5054800F04FFB04B20021024800F0C1
:1002E000C7FB204610BD00000004004000B587B0E9
:1002F0000121022000F0ECF80121042000F0F8F8C0
:1003000048208DF81B00C020ADF8180003208DF8A0
:100310001A0006A91B4800F039F80020ADF81200B9
:10032000ADF80E004FF6FF70ADF810000020ADF8EC
:100330000C008DF8140003A9134800F0C7FB6846B1
:1003400000F084FB0020ADF800000F20ADF808009D
:1003500069460D4800F024FB0420ADF800000F2092
:10036000ADF808006946084800F01AFB00231A4659
:100370000321054800F0DEFA0121034800F0CEFA1F
:1003800007B000BD00080140000400402DE9F04125
:10039000024600250026002000230024002791F8B3
:1003A00003C00CF00F0591F803C00CF0100CBCF169
:1003B000000F03D091F802C04CEA050591F800C087
:1003C000BCF1000F31D0146800202BE04FF0010C7D
:1003D0000CFA00F3B1F800C00CEA03069E4220D1EB
:1003E00083004FF00F0C0CFA03F7BC4305FA03FC33
:1003F0004CEA040491F803C0BCF1280F06D14FF079
:10040000010C0CFA00FCC2F814C00AE091F803C019
:10041000BCF1480F05D14FF0010C0CFA00FCC2F8FA
:1004200010C0401C0828D1D31460B1F800C0BCF142
:10043000FF0F34DD546800202EE000F1080C4FF06F
:10044000010808FA0CF3B1F800C00CEA03069E425A
:1004500021D183004FF00F0C0CFA03F7BC4305FACF
:1004600003FC4CEA040491F803C0BCF1280F05D149
:1004700000F1080C08FA0CF8C2F8148091F803C0D7
:10048000BCF1480F07D100F1080C4FF0010808FA41
:100490000CF8C2F81080401C0828CED35460BDE888
:1004A000F081000008B50121042000F021F8282087
:1004B0008DF803000120ADF8000003208DF8020044
:1004C00069460248FFF762FF08BD000000080140CE
:1004D00029B1064AD2690243044BDA6104E0034AB7
:1004E000D2698243014BDA6170470000001002407C
:1004F00029B1064A92690243044B9A6104E0034A17
:1005000092698243014B9A617047000000100240DB
:1005100010B500F001F810BD0CB50020019000905E
:100520003348006840F480303149086000BF3048EB
:10053000006800F4003000900198401C0190009881
:1005400018B90198B0F5A06FF1D12948006800F4FE
:10055000003010B10120009001E0002000900098D0
:10056000012843D12348006840F010002149086069
:100570000846006820F0030008600846006840F064
:10058000020008601A4840681949486008464068F7
:1005900048600846406840F480604860084640680B
:1005A00020F47C1048600846406840F4E810486039
:1005B0000846006840F08070086000BF0C48006882
:1005C00000F000700028F9D00948406820F00300CE
:1005D000074948600846406840F00200486000BF94
:1005E0000348406800F00C000828F9D10CBD000059
:1005F000001002400020024010B51348006840F08F
:1006000001001149086008464068104908400E4939
:100610004860084600680E4908400B4908600846D3
:10062000006820F4802008600846406820F4FE003E
:1006300048604FF41F008860FFF76AFF4FF00060CA
:100640000449086010BD0000001002400000FFF8DF
:10065000FFFFF6FE08ED00E0F0B50C46154600225F
:100660000021068C4FF6FE773E400684028B018CFB
:100670004FF60C7632407E1C06EA03162E433243B8
:10068000104EB0420ED0104EB0420BD0B0F1804FA1
:1006900008D00E4EB04205D00D4EB04202D00D4EE5
:1006A000B04206D14FF6FD76314044F001063143A9
:1006B00005E04FF6F576314044F001063143028300
:1006C0000184F0BD002C01400034014000040040D2
:1006D00000080040000C0040F0B50C461546002212
:1006E00000210026078C4FF6EF7C07EA0C070784F1
:1006F000028B018C4FF6FF7707EA041640F6FF479E
:100700003A404FF6FF7707EA03373A434FF6FF7751
:1007100007EA05273A43114FB8420ED0104FB842AE
:100720000BD0B0F1804F08D00E4FB84205D00E4F1D
:10073000B84202D00D4FB84206D14FF6DF773940AC
:1007400046F01007394305E04FF65F77394044F033
:100750001007394302830184F0BD0000002C0140E2
:10076000003401400004004000080040000C00403C
:10077000F0B50C461546002200210026078C4FF6E6
:10078000FF6C07EA0C070784828B018C4FF6FF771A
:1007900007EA04264FF60C773A404FF6FF7707EA50
:1007A00003172F433A43114FB8420ED0104FB842AF
:1007B0000BD0B0F1804F08D00E4FB84205D00E4F8D
:1007C000B84202D00D4FB84206D14FF6FF5739401C
:1007D00046F48077394305E04FF2FF57394044F43F
:1007E0008077394382830184F0BD0000002C0140F2
:1007F000003401400004004000080040000C0040AC
:10080000F0B50C461546002200210026078C4EF656
:10081000FF7C07EA0C070784828B018C4FF6FF7779
:1008200007EA043640F6FF473A404FF6FF7707EAFB
:1008300005273A434FF6FF7707EA03373A43114F4C
:10084000B8420ED0104FB8420BD0B0F1804F08D054
:100850000E4FB84205D00E4FB84202D00D4FB842ED
:1008600006D14DF6FF77394046F48057394305E00D
:1008700047F6FF57394044F4805739438283018457
:10088000F0BD0000002C0140003401400004004095
:1008900000080040000C004010B50121880700F05E
:1008A0006DF8012807D1FFF713FD034908800121E6
:1008B000880700F030F810BD000000203EB5054666
:1008C0000C4601210846FFF703FE00214FF080404F
:1008D00000F024F8ADF80450ADF800400020ADF869
:1008E0000600ADF802008DF8080069464FF0804020
:1008F00000F0ECF80121880700F00AF80122114607
:10090000900700F0ACF80121880700F007F83EBD21
:10091000CA4302827047CA430282704721B10288EB
:1009200042F00102028004E002884FF6FE731A4092
:1009300002807047F0B50C4615461E460021002285
:1009400000230189028B038C4FF6F877394021434D
:100950004FF6FC473A4040F201173A434FF6DD7735
:100960003B404FF6FF7707EA06172F433B430181D1
:1009700002830384F0BD0146888C704730B502467F
:10098000002000230024158A05EA0103958905EA61
:10099000010413B10CB1012000E0002030BD0000C3
:1009A00070B505460C46244885420ED02348854242
:1009B0000BD0B5F1804F08D02148854205D02148A1
:1009C000854202D02048854200D100E000BF208847
:1009D00050B92389A28861882846FFF73DFEE18847
:1009E000284600F047F825E0208804280AD123890A
:1009F000A28861882846FFF76FFEE188284600F04C
:100A000042F817E0208808280AD12389A288618843
:100A10002846FFF7ADFEE188284600F041F809E0DE
:100A20002389A28861882846FFF7EAFEE1882846E4
:100A300000F03FF870BD0000002C01400034014080
:100A40000004004000080040000C0040002101802C
:100A50004180012181800021C180018170471AB14C
:100A600083890B43838102E083898B4383817047B1
:100A700081847047028B4FF6F3731A400283028B16
:100A80000A4302837047028B4FF2FF331A400283FE
:100A9000028B4FF6FF7303EA01231A430283704768
:100AA000828B4FF6F3731A408283828B0A438283D0
:100AB0007047828B4FF2FF331A408283828B4FF64E
:100AC000FF7303EA01231A438283704700220288DE
:100AD0001D4B98420ED01D4B98420BD0B0F1804F69
:100AE00008D01B4B984205D01A4B984202D01A4BA3
:100AF000984204D14FF68F731A404B881A43174B14
:100B0000984207D0164B984204D04FF6FF431A4044
:100B1000CB881A4302808B8883850B8803850A4B18
:100B200098420BD0094B984208D00E4B984205D002
:100B30000D4B984202D00D4B984201D10B7A03869F
:100B40000123838270470000002C014000340140E3
:100B50000004004000080040000C0040001000406D
:100B600000140040004001400044014000480140A2
:100B7000FFF798FCFFF7BAFB41F61F4142F20F70F6
:100B8000FFF79CFE00BFFEE7A80B00080000002056
:100B9000040000006C010008AC0B000804000020F9
:0C0BA0006406000088010008000000004E
:0400000508000131BD
:00000001FF
