:020000040800F2
:1000000098060020CD010008190800080B07000819
:100010000F070008E5050008FD0D000800000000BE
:10002000000000000000000000000000AD0C00080F
:10003000E9050008000000002D0B0008990D0008DC
:10004000E7010008E7010008E7010008E7010008F0
:10005000E7010008E7010008E7010008E7010008E0
:10006000E7010008E7010008E7010008E7010008D0
:10007000E7010008E7010008E7010008E7010008C0
:10008000E7010008E7010008E7010008E7010008B0
:10009000E7010008E7010008E7010008E7010008A0
:1000A000E7010008E7010008E7010008E701000890
:1000B000E7010008E7010008E7010008E701000880
:1000C000E7010008E7010008E7010008E701000870
:1000D000E7010008E7010008E7010008E701000860
:1000E000E7010008E7010008E7010008E701000850
:1000F000E7010008E7010008E7010008E701000840
:10010000E7010008E7010008E7010008E70100082F
:10011000E7010008E7010008E7010008E70100081F
:10012000E7010008E7010008E7010008E70100080F
:1001300000F002F800F03AF80AA090E8000C8244BF
:100140008344AAF10107DA4501D100F02FF8AFF29C
:10015000090EBAE80F0013F0010F18BFFB1A43F0A5
:10016000010318471413000034130000103A24BF91
:1001700078C878C1FAD8520724BF30C830C144BF0C
:1001800004680C607047000000230024002500264E
:10019000103A28BF78C1FBD8520728BF30C148BFEA
:1001A0000B6070471FB51FBD10B510BD00F0C3F93F
:1001B0001146FFF7F7FF00F023FE00F0E1F903B46A
:1001C000FFF7F2FF03BC00F0E9F90000094880479F
:1001D00009480047FEE7FEE7FEE7FEE7FEE7FEE729
:1001E000FEE7FEE7FEE7FEE704480549054A064B41
:1001F000704700009D0D00083101000898000020A4
:1002000098060020980200209802002010B5203A9D
:10021000C0F00B80B1E81850203AA0E81850B1E8BF
:100220001850A0E81850BFF4F5AF5FEA027C24BF75
:10023000B1E81850A0E8185044BF18C918C0BDE86C
:1002400010405FEA827C24BF51F8043B40F8043B35
:1002500008BF7047D20728BF31F8023B48BF11F8EA
:10026000012B28BF20F8023B48BF00F8012B704744
:10027000014900F0DDB800000C00002010B5036853
:100280001C1404EB21449BB289B2194494FBF2F391
:1002900002FB134394FBF2F401EB034393FBF2F1F3
:1002A00002FB113193FBF2F301E05B1E11440029C4
:1002B000FBDB016003EB044010BDF0B504464FF0DA
:1002C000FF3585B00068049060680290A0680390D4
:1002D000E068019020690090666906F18040B0F105
:1002E000004F7CD83C22002104A8FFF7C7FF3C2226
:1002F000014602A8FFF7C2FF1822014603A8FFF734
:10030000BDFF411E40F2B55201A8FFF7B7FF0C2216
:10031000074668460021FFF7B1FF414B00EB87001D
:10032000304400267B4411E0511A01910099491C88
:100330000229009102D00C2908D105E0810705D0DF
:100340000199491C019101E0401C00960099019A15
:10035000595C9142E8DD0099012906D11C2A04D19B
:10036000810702D00221CDE90016A0F146018B29B8
:100370003CD2DDE90061002202E09F5C521C39445E
:10038000B242FADB012E02DD820700D0491E40F2A4
:10039000B55340F26D16C21700EB927292105A4399
:1003A00000F0030303FB062283070A4400D1521E18
:1003B000039E02EB4203049F06EBC303029EC3EBC2
:1003C000031306EB8303174E33441E149BB2C6EB94
:1003D0000616C3EB0313B60007EB830300E005E04A
:1003E00006EB134666F31F43360C02D0284605B0D1
:1003F000F0BD80C4029E40C4039E40C4019E761C92
:1004000044F80C6B009E44E902600720521C92FBEA
:10041000F0F600FB162084E823001846E7E700000A
:1004200044110000A039CEFD7047704770470000AE
:1004300070B50C46016800204A1C3ED03C22B1FB3E
:10044000F2F302FB1313B1FBF2F12360B1FBF2F301
:1004500002FB1313B1FBF2F118226360B1FBF2F35C
:1004600002FB1313B1FBF2F146F2E0320A4407211A
:10047000A360B2FBF1F301FB132140F2B553B2FBD1
:10048000F3F5A161B2FBF3F103FB15228900B2F58C
:10049000B77F08D39B10521EB2FBF3F52944B2FB81
:1004A000F3F503FB15220F4BE261616189077B4481
:1004B0000CD03B2A0AD3521C08E02C21204600F025
:1004C00013F80120E0600AE0521A401C195C9142C6
:1004D000FAD9521CC4E903204FF0FF3020622046B5
:1004E00070BD0000BA0F00004FF0000200B51346C7
:1004F00094469646203922BFA0E80C50A0E80C5044
:10050000B1F12001BFF4F7AF090728BFA0E80C50F4
:1005100048BF0CC05DF804EB890028BF40F8042BED
:1005200008BF704748BF20F8022B11F0804F18BF5A
:1005300000F8012B7047754600F02CF8AE46050018
:100540006946534620F00700854618B020B5FFF7EE
:100550004BFEBDE820404FF000064FF000074FF083
:1005600000084FF0000B21F00701AC46ACE8C009D1
:10057000ACE8C009ACE8C009ACE8C0098D467047DA
:1005800010B50446AFF300802046BDE81040FFF7E9
:1005900016BE0000004870473800002001491820AE
:1005A000ABBEFEE7260002007047000008B501461A
:1005B00000200090034800900098084400900098A4
:1005C000008808BD006C004008B500220092044A73
:1005D0000092009A02440092009A116008BD000047
:1005E000006C004000BFFEE770472DE9F041024675
:1005F00000250026002000230024002791F803C0D6
:100600000CF00F0591F803C00CF0100CBCF1000FBA
:1006100003D091F802C04CEA050591F800C0BCF186
:10062000000F31D0146800202BE04FF0010C0CFAC1
:1006300000F3B1F800C00CEA03069E4220D183000B
:100640004FF00F0C0CFA03F7BC4305FA03FC4CEA1D
:10065000040491F803C0BCF1280F06D14FF0010C3F
:100660000CFA00FCC2F814C00AE091F803C0BCF117
:10067000480F05D14FF0010C0CFA00FCC2F810C075
:10068000401C0828D1D31460B1F800C0BCF1FF0FA2
:1006900034DD546800202EE000F1080C4FF0010812
:1006A00008FA0CF3B1F800C00CEA03069E4221D10F
:1006B00083004FF00F0C0CFA03F7BC4305FA03FC60
:1006C0004CEA040491F803C0BCF1280F05D100F1F5
:1006D000080C08FA0CF8C2F8148091F803C0BCF1B9
:1006E000480F07D100F1080C4FF0010808FA0CF888
:1006F000C2F81080401C0828CED35460BDE8F081B9
:100700000AB1016100E04161704700BFFEE700BF30
:10071000FEE710B50121080700F00AFA0121C8061A
:1007200000F006FA012000F0FBF90420FFF73EFF7D
:100730004AF2A551884220D0012000F037FA00BFCC
:10074000412000F015FA0128FAD1000200F04EFA1B
:10075000012000F045FA00F097FA00F08BFA47F616
:10076000FF7000F077FA00F085FA00F02FF84AF2F7
:10077000A5510420FFF728FF03E000F085FA00F000
:1007800079FA10BD10B58CB000F04CFA00F5E140DC
:100790000B900BA8FFF76CFD04462C2221466846FF
:1007A000FFF734FD059800F26C7007490880049843
:1007B000401C4880039888800298C880019808816E
:1007C000009848810CB010BD0000002010B58CB01E
:1007D00010480088A0F26C7006900E484088401EB9
:1007E00005900C48808804900A48C0880390094806
:1007F0000089029007484089019001A8FFF75DFD3C
:10080000A0F5E144204600F017FA00F033FA0CB0EE
:1008100010BD000000000020704770B500240EE0FD
:100820000021204600F0EFF8002504E0002000F051
:1008300067F9681CC5B2802DF8DB601CC4B2082CB7
:10084000EEDB70BD08B50121082000F081F914200D
:100850008DF8030003208DF802004FF48070ADF88E
:10086000000069460A48FFF7C0FE4FF40070ADF87B
:10087000000069460648FFF7B8FE0122110204484D
:10088000FFF73EFF012251020148FFF739FF08BD83
:10089000000C014070B50546002415E08020204181
:1008A00000EA05024FF400710E48FFF729FF01220C
:1008B00011020C48FFF724FF00224FF48071094811
:1008C000FFF71EFF601CC4B2082CE7DB01221102F7
:1008D0000448FFF715FF00224FF480710148FFF72D
:1008E0000FFF70BD000C014010B5012251020A48F3
:1008F000FFF706FF012211020748FFF701FF002260
:100900004FF400710448FFF7FBFE00224FF48071A2
:100910000148FFF7F5FE10BD000C014010B50022A4
:100920004FF400710648FFF7EBFE01221102044864
:10093000FFF7E6FE012251020148FFF7E1FE10BD7C
:10094000000C014070B5002406E0002500E06D1C9D
:10095000B5F57A7FFBD3641CB4F57A7FF5D3FFF746
:1009600071FFAE2000F0BCF8D52000F0B9F880206F
:1009700000F0B6F8A82000F0B3F83F2000F0B0F87F
:10098000D32000F0ADF8002000F0AAF8402000F0DD
:10099000A7F8A12000F0A4F8C82000F0A1F8DA2000
:1009A00000F09EF8122000F09BF8812000F098F8EB
:1009B000CF2000F095F8D92000F092F8F12000F057
:1009C0008FF8DB2000F08CF8302000F089F8A420AC
:1009D00000F086F8A62000F083F88D2000F080F863
:1009E000142000F07DF8AF2000F07AF8FFF715FF33
:1009F00070BD10B50246012000E050430B1EA1F16E
:100A00000101FAD110BD70B505460C4645F0B000A5
:100A100000F066F8102141EA141000F061F804F0CB
:100A20000F0000F05DF870BD2DE9F04105460E465F
:100A30001746721ED206110E6A1E5206100EFFF7DE
:100A4000E2FF002409E0A7F12001134A02EB0111A3
:100A5000085D00F055F8601CC4B2082CF3DB721E70
:100A6000D206110E6A1E012303EB4202D0B2FFF739
:100A7000CAFF00240BE0A7F12001074A02EB011294
:100A800004F10801505C00F03BF8601CC4B2082C73
:100A9000F1DBBDE8F08100007C0E00082DE9F04795
:100AA00080460E4617461D46002415E0281B411EB1
:100AB0000A20FFF79EFFB7FBF0F00A21B0FBF1F22E
:100AC00001FB120000F130093019C1B24A4640461C
:100AD000FFF7AAFF601CC4B2AC42E7DBBDE8F087B9
:100AE00010B50446FFF700FF7820FFF7D3FE002083
:100AF000FFF7D0FE2046FFF7CDFEFFF70FFF10BD3A
:100B000010B50446FFF7F0FE7820FFF7C3FE402043
:100B1000FFF7C0FE2046FFF7BDFEFFF7FFFE10BD4A
:100B2000014908627047000000000E427047000053
:100B300029B1064AD2690243044BDA6104E0034A50
:100B4000D2698243014BDA61704700000010024015
:100B500029B1064A92690243044B9A6104E0034AB0
:100B600092698243014B9A61704700000010024075
:100B700010B501460022002300204A11012A02D1AB
:100B8000094C236806E0022A02D1074C236A01E0DF
:100B9000054C636A01F01F02012494401C400CB113
:100BA000012000E0002010BD0010024000210B4A8F
:100BB00011700A4A203A82F82010012802D0042835
:100BC00008D103E00121054A117004E00521034A20
:100BD000117000E000BF00BF70470000201002400D
:100BE00001490860704700003C0442420249096A1A
:100BF0000143014A11627047001002400348008817
:100C000040F01000014908807047000004280040AF
:100C1000034800884FF6EF7108400149088070478B
:100C200004280040002103480188001F008841EA91
:100C3000004070471C28004000B50246FFF7DEFF69
:100C4000100C03490880091D0A80FFF7E1FF00BD71
:100C50001828004000B50246FFF7D0FFC2F303405A
:100C600003490880091D0A80FFF7D2FF00BD00007C
:100C70000828004000BF0348008800F0200000283A
:100C8000F9D0704704280040074800884FF6F771F4
:100C900008400549088000BF0348008800F00800AC
:100CA0000028F9D07047000004280040704710B5B4
:100CB00000F002F810BD00000CB50020019000907B
:100CC0003348006840F480303149086000BF304844
:100CD000006800F4003000900198401C01900098DA
:100CE00018B90198B0F5A06FF1D12948006800F457
:100CF000003010B10120009001E000200090009829
:100D0000012843D12348006840F0100021490860C1
:100D10000846006820F0030008600846006840F0BC
:100D2000020008601A48406819494860084640684F
:100D300048600846406840F4806048600846406863
:100D400020F47C1048600846406840F4E810486091
:100D50000846006840F08070086000BF0C480068DA
:100D600000F000700028F9D00948406820F0030026
:100D7000074948600846406840F00200486000BFEC
:100D80000348406800F00C000828F9D10CBD0000B1
:100D900000100240002002407047000010B51348C8
:100DA000006840F001001149086008464068104999
:100DB00008400E494860084600680E4908400B4943
:100DC00008600846006820F48020086008464068F3
:100DD00020F4FE0048604FF41F008860FFF767FFB3
:100DE0004FF000600449086010BD00000010024090
:100DF0000000FFF8FFFFF6FE08ED00E000BFFEE791
:100E0000FFF7A0FDFFF785FC34E0FFF7BBFC1A48B5
:100E10000288042306210120FFF740FE164842887D
:100E200002230B210120FFF739FE13488288022399
:100E30000C210120FFF732FE0F48C2880223062151
:100E40001846FFF72BFE0C48028902230921184699
:100E5000FFF724FE0848428902230C211846FFF7B9
:100E60001DFEFFF7DFFE04460A232246062103206B
:100E7000FFF714FEC9E7000000000020000000009A
:100E8000000000000000000000000000000000F86A
:100E900000000000000000333000000000100C06CD
:100EA000100C0600000000000000000040C0784068
:100EB000C0784000043F04043F040400007088FC34
:100EC00008300000001820FF211E0000F008F0008C
:100ED000E018000000211C031E211E0000F00888FD
:100EE000700000001E2123241927211010160E0067
:100EF000000000000000000000000000000000E012
:100F00001804020000000007182040000002041826
:100F1000E00000000040201807000000404080F082
:100F2000804040000202010F01020200000000F0B8
:100F3000000000000101011F01010100000000008C
:100F40000000000080B07000000000000000000001
:100F5000000000000001010101010101000000008A
:100F60000000000000303000000000000000000021
:100F700080601804006018060100000000E01008FE
:100F80000810E000000F102020100F00001010F8D3
:100F9000000000000020203F202000000070080812
:100FA0000888700000302824222130000030088892
:100FB000884830000018202020110E000000C020BA
:100FC00010F8000000070424243F240000F80888DB
:100FD000880808000019212020110E0000E0108868
:100FE00088180000000F112020110E00003808089A
:100FF000C83808000000003F0000000000708808AA
:1010000008887000001C222121221C0000E010082A
:101010000810E0000000312222110F00000000C083
:10102000C000000000000030300000000000008020
:101030000000000000008060000000000000804010
:101040002010080000010204081020004040404029
:10105000404040000404040404040400000810207C
:1010600040800000002010080402010000704808C1
:101070000808F0000000003036010000C030C82829
:10108000E810E0000718272423140B000000C038E4
:10109000E0000000203C23020227382008F888885E
:1010A00088700000203F202020110E00C03008086A
:1010B00008083800071820202010080008F8080841
:1010C0000810E000203F202020100F0008F888883A
:1010D000E8081000203F20202320180008F8888806
:1010E000E8081000203F200003000000C03008087E
:1010F0000838000007182020221E020008F8080007
:101100000008F808203F210101213F20000808F8CD
:10111000080800000020203F2020000000000808F0
:10112000F8080800C08080807F00000008F888C0B0
:1011300028180800203F20012638200008F8080061
:1011400000000000203F20202020300008F8F80098
:10115000F8F80800203F003F003F200008F830C0AA
:101160000008F808203F200007183F00E01008089A
:101170000810E0000F10202020100F0008F80808C9
:101180000808F000203F210101010000E0100808DC
:101190000810E0000F18242438504F0008F8888801
:1011A00088887000203F2000030C302000708808E1
:1011B000080838000038202121221C00180808F8EF
:1011C000080818000000203F2000000008F8080070
:1011D0000008F808001F202020201F000878880041
:1011E00000C83808000007380E010000F80800F8B1
:1011F0000008F800033C0700073C0300081868805B
:101200008068180820302C03032C30200838C800D0
:10121000C83808000000203F20000000100808081F
:10122000C83808002038262120201800000000FEC1
:10123000020202000000007F40404000000C30C06D
:1012400000000000000000010638C0000002020299
:10125000FE000000004040407F000000000004024B
:101260000202040000000000000000000000000076
:101270000000000080808080808080800002020466
:10128000000000000000000000000000000080805E
:10129000808000000019242222223F2008F80080CC
:1012A00080000000003F112020110E00000000808F
:1012B00080800000000E112020201100000000801E
:1012C0008088F800000E112020103F200000808050
:1012D00080800000001F222222221300008080F064
:1012E000888888180020203F20200000000080808F
:1012F00080808000006B94949493600008F80080D4
:1013000080800000203F210000203F20008098982E
:10131000000000000020203F20200000000000808E
:101320009898000000C08080807F000008F80000CE
:1013300080808000203F24022D302000000808F823
:10134000000000000020203F2020000080808080DE
:1013500080808000203F20003F20003F8080008070
:1013600080800000203F210000203F20000080807E
:1013700080800000001F202020201F00808000802F
:101380008000000080FFA12020110E0000000080DE
:1013900080808000000E112020A0FF8080808000CF
:1013A0008080800020203F212000010000008080FC
:1013B000808080000033242424241900008080E0F1
:1013C000808000000000001F2020000080800000BE
:1013D00000808000001F202020103F20808080009F
:1013E0000080808000010E300806010080800080AF
:1013F000008080800F300C030C300F0000808000D4
:10140000808080000020312E0E31200080808000FE
:101410000080808080818E701806010000808080AE
:10142000808080000021302C22213000000000004C
:10143000807C020200000000003F404000000000ED
:10144000FF00000000000000FF0000000002027C1E
:10145000800000000040403F000000000006010145
:101460000202040400000000000000001F1D1F1EF7
:101470001F1E1F1F1E1F1E1F9814000800000020A3
:101480000C0000006C010008A41400080C000020EF
:101490008C06000088010008E70701000100170022
:0414A0003B003700D6
:0400000508000131BD
:00000001FF
